:020000040800F2
:1000000000200020F5110008E9050008EB050008B4
:1000100000000000000000000000000000000000E0
:10002000000000000000000000000000ED050008D6
:100030000000000000000000EF050008F1050008C6
:100040004512000800000000451200084512000893
:1000500045120008F905000845120008451200087D
:100060000000000045120008451200084512000873
:100070004512000845120008451200080000000063
:100080004512000845120008000000004512000853
:1000900045120008451200084512000845120008E4
:1000A00045120008451200084512000845120008D4
:1000B00045120008000000000000000000000000E1
:1000C00010B5064C2378002B07D1054B002B02D02E
:1000D000044800E000BF0123237010BD5800002039
:1000E00000000000A0120008044B10B5002B03D044
:1000F0000349044800E000BF10BDC04600000000F6
:100100005C000020A0120008002243088B4274D338
:1001100003098B425FD3030A8B4244D3030B8B4208
:1001200028D3030C8B420DD3FF22090212BA030C11
:100130008B4202D31212090265D0030B8B4219D3F2
:1001400000E0090AC30B8B4201D3CB03C01A524112
:10015000830B8B4201D38B03C01A5241430B8B425A
:1001600001D34B03C01A5241030B8B4201D30B0343
:10017000C01A5241C30A8B4201D3CB02C01A52416A
:10018000830A8B4201D38B02C01A5241430A8B422D
:1001900001D34B02C01A5241030A8B4201D30B0216
:1001A000C01A5241CDD2C3098B4201D3CB01C01A30
:1001B000524183098B4201D38B01C01A524143093A
:1001C0008B4201D34B01C01A524103098B4201D328
:1001D0000B01C01A5241C3088B4201D3CB00C01A95
:1001E000524183088B4201D38B00C01A524143080D
:1001F0008B4201D34B00C01A5241411A00D2014632
:10020000524110467047FFE701B5002000F006F8A4
:1002100002BDC0460029F7D076E770477047C04658
:1002200010B580231B02C418240300F0CDFA20006F
:1002300000F07CFB8023DB00E01800F077FB8023DC
:100240001B01E01800F072FBC0231B01E01800F056
:100250006DFB00F0D1FA10BD10B584B0040000F0C1
:10026000B3FA00230193029401220392009369469A
:1002700001A800F06DFB00F0BFFA04B010BDF0B5AE
:1002800085B004000D0017001E0000F09DFA002349
:1002900001930294012203920093694601A800F0A1
:1002A00057FB012E05D0022E13D000F0A5FA05B0A1
:1002B000F0BD7F08002609E0B100C9B273005A5BA7
:1002C00009190023012000F0CFFA0136B742F3D814
:1002D000EBE7BF08002609E0B100C9B2B3005A59E4
:1002E00009190023022000F0BFFA0136B742F3D803
:1002F000DBE730B5012B05D0002B26D0022B0ED02A
:10030000012030BD5208002406E0A300DBB21B1818
:100310001D686300CD5201349442F6D3F0E7920891
:10032000002406E0A300DBB21B181D68A300CD501B
:1003300001349442F6D3E3E7A300DBB21B181B6839
:100340000B5501349442F7D3DAE70024FAE70000B2
:10035000F8B50D001400114B1B7E012B1CD00F4B68
:1003600001221A760E4800F051FA002803D00B4BF8
:1003700000221A76F8BD094B0022DA61094E336972
:1003800001273B433361A4B22C80054800F03EFABC
:100390003369BB433361EAE70220EBE778000020D2
:1003A00050C3000000200240F8B504000D00170003
:1003B0001E0000F009FA012E06D0002E2FD0022ECA
:1003C00012D000F019FAF8BD7F08002609E0B1004C
:1003D000C9B273005A5B09190023012000F044FAE6
:1003E0000136B742F3D8ECE7BF08002609E0B100B8
:1003F000C9B2B3005A5909190023022000F034FA97
:100400000136B742F3D8DCE7B100C9B2AA5D0919D9
:100410000120FFF79DFF0136B742F5D8D1E700264E
:10042000FAE70000F0B589B01422002103A800F01B
:100430002FFF184B596980208002014359615A6986
:1004400002400192019A5A69802109030A435A61C4
:100450005B690B400293029BC027BF000E4D002238
:100460003900280000F08CFB012603960B4B049307
:1004700000240594902003A9C00500F0BBFA03975F
:1004800004960594069403A9280000F0B3FA09B075
:10049000F0BDC046001002400008004800001110E6
:1004A00010B500220021052000F006F9052000F01B
:1004B00035F910BD10B590B02C22002105A800F030
:1004C000E7FE10220021684600F0E2FE02240494B8
:1004D000012307930F3308930C94A0239B030E93DF
:1004E00004A800F06BFB0723009301940023029300
:1004F00003930121684600F0E5FD10B010BD000037
:1005000070B500F0A5F8FFF7D5FFFFF78BFFFFF7F9
:10051000C7FF204C204D0123142221002800FFF7A3
:10052000AEFE012314221D492800FFF7E2FE210040
:1005300014311B4D022328222800FFF735FF022328
:10054000282218492800FFF7D4FE174D2800FFF78E
:1005500083FE21003C3100230B222800FFF724FFFB
:1005600000230A2211492800FFF7C3FE0720FFF7E6
:1005700057FE08E0802149000D4800F007FBFA20F3
:10058000800000F087F80B4B1B78092BF2D9002074
:1005900070BDC0460000002000700008C0000020B0
:1005A000007400089800002000780008D4000020A3
:1005B00000080048DE00002082B00A4B9969012241
:1005C0001143996199690A400092009ADA69802181
:1005D00049050A43DA61DB690B400193019B02B0D4
:1005E0007047C046001002407047FEE770477047F2
:1005F00010B500F03DF810BD10B5012000F0D0FAA4
:1006000010BD704710B504000F4B1978FA20800018
:10061000FFF77AFD01000D4B1868FFF775FD00F03C
:1006200089F800280DD1032C01D901200AE00130FE
:1006300000222100404200F03FF8034B5C600020A4
:1006400000E0012010BDC046500000204C000020FA
:1006500010B5064A136810210B4313600020FFF702
:10066000D1FFFFF7A9FF002010BDC04600200240C7
:10067000034A1168034B1B785B1813607047C04630
:10068000E000002050000020014B18687047C04671
:10069000E000002070B50400FFF7F6FF0500631CC2
:1006A00002D0044B1B78E418FFF7EEFF401BA0427A
:1006B000FAD370BD5000002070B5002811DB83080C
:1006C000144DC0339B005C5903221040C000FC3223
:1006D00016008640B44389010A40824022435A51A1
:1006E00070BDC0B20F230340083B9B0806339B003C
:1006F000094A944663445D6803242040C000FF22F9
:1007000014008440A5438901114081402943596068
:10071000E6E7C04600E100E000ED00E0002805DB70
:100720001F2318401E3B8340014A13607047C04698
:1007300000E100E001380A4B98420FD8094A5060A6
:100740000948036A1B021B0AC02109060B43036206
:100750000023936007331360002070470120FCE7FB
:10076000FFFFFF0010E000E000ED00E010B5054BDA
:100770000022DA61044A13690124234313610180D2
:1007800010BDC04678000020002002400C4BDB6802
:10079000DB0613D50B4AD36902210B43D361102327
:1007A000074AD268520706D50649CA6901200243A2
:1007B000CA6104221343024AD36070470023EFE763
:1007C0000020024078000020084B1B691B060BD557
:1007D000064B074A5A60074A5A601B691B0601D537
:1007E000012002E0002000E00020704700200240CD
:1007F00023016745AB89EFCD034A136980210B4381
:10080000136100207047C0460020024070B504000C
:10081000FFF73AFF0500134BDB68DB070AD5631CC3
:10082000F9D0002C19D0FFF72FFF401BA042F2D9BE
:10083000032011E00B4BDB689B0602D5094B2022FD
:10084000DA60084BDB68DB0603D4064BDB685B072A
:1008500005D5FFF79BFF012070BD0320FCE70020BA
:10086000FAE7C04600200240F0B5C64600B50400D5
:100870000D0090461E00214B1B7E012B3BD01F4BD1
:1008800001221A761E48FFF7C1FF00282DD1012C46
:1008900006D0022C02D0042700241BE00227FBE72D
:1008A0000127F9E72022D21A310091400A0041467F
:1008B000D940114389B24019FFF758FF1048FFF79C
:1008C000A5FF104A136901218B43136100280CD145
:1008D0000134E4B2BC4208D260002301202252421B
:1008E0009A18DFD43100D140E4E7044B00221A7695
:1008F00004BC9046F0BD0220FAE7C0467800002014
:1009000050C3000000200240064B0022DA61064B73
:100910001A6904210A431A611A693C310A431A61AF
:100920007047C0467800002000200240064B00229D
:10093000DA61064B1A6902210A431A6158611A6981
:100940003E310A431A6170477800002000200240BF
:1009500070B505000E00244B1B7E012B41D0224BAD
:1009600001221A760368012B22D02048FFF74EFFA0
:10097000002831D101235B4233606C680130AB68E1
:100980009B026A6894466344A34226D92000FFF77D
:10099000CDFF1648FFF73AFF154A136902218B4332
:1009A0001361002816D18023DB009C466444E6E7EF
:1009B0000E48FFF72BFF002801D001200DE0FFF7C4
:1009C000A3FF0A48FFF722FF094A136904218B435A
:1009D000136102E0346000E00120034B00221A762C
:1009E00070BD0220FCE7C0467800002050C3000024
:1009F00000200240F0B5CE46474680B583B00023C4
:100A000033E0032600E00026AE4035003D430234CB
:100A1000A400554EA551554C2568D4432E002640C0
:100A20004F68FF0301D515432E00504D2E606D68B1
:100A30002E0026404F68BF0301D515432E004B4DB5
:100A40006E60AD682E0026404F68FF0201D5154349
:100A50002E00464DAE60ED682C404E68B60201D5C2
:100A60002A431400414AD46001330A681400DC4070
:100A700074D001249C402240F6D04D686E1E012E99
:100A800003D9112D01D0122D12D185685F000326E4
:100A9000BE40B5432E00CD68BD40354385604568F6
:100AA000A5434C682609012434409C402C434460F3
:100AB000C7685E000324B440E443A44627408D6821
:100AC000B5403D43C5604C68022C01D0122C10D1BA
:100AD000DC080834A400A146275807251D40AD00B6
:100AE0000F24AC40A7430C69AC4025003D434C4665
:100AF000255005686446254003244F683C40B440B7
:100B00002C4304604C68E400AED5194DAE69012455
:100B10002643AE61AD692C400194019C9C08A51C44
:100B2000AD00114EAF5903251D40AD000F26AE405C
:100B3000B7439026F605B04200D164E70D4EB042AF
:100B400008D00D4EB04207D00C4EB04200D158E74D
:100B5000052659E7012657E7022655E703B00CBCE6
:100B600090469946F0BDC046000001400004014097
:100B7000001002400004004800080048000C004833
:100B8000002A01D1816270478161FCE7426913004C
:100B90000B401B049143194381617047704700006B
:100BA00010B5054B5B69184200D110BD024B58616E
:100BB000FFF7F4FFF9E7C0460004014070B582B0CA
:100BC000041E00D132E20368DB0726D5AE4B5A681B
:100BD0000C231340042B18D0AB4B5A680C23134042
:100BE000082B0ED06368012B3CD0002B51D1A64BB3
:100BF0001A68A6490A401A601A68A5490A401A608C
:100C000036E0A14B5B68DB03ECD59F4B1B689B0375
:100C100003D56368002B00D10BE223689B0773D5D3
:100C2000994B5B680C221A425DD0974B5A680C2393
:100C30001340082B53D0E368002B00D186E0924A82
:100C4000136801210B431360FFF71EFD05008E4B57
:100C50001B689B0771D4FFF717FD401B0228F6D9CC
:100C60000320E4E1884A116880235B020B43136090
:100C70006368002B25D0FFF707FD0500824B1B683A
:100C80009B03CAD4FFF700FD401B6428F6D903205C
:100C9000CDE1052B09D07C4B1A687C490A401A60CB
:100CA0001A687B490A401A60E2E7774B196880228C
:100CB000D2020A431A601968802252020A431A605B
:100CC000D6E7FFF7E1FC05006F4B1B689B03A4D53B
:100CD000FFF7DAFC401B6428F6D90320A7E16A4B32
:100CE0005B68DB03A7D4684B1B689B0704D5E368EC
:100CF000012B01D001209AE163490B68F82293434C
:100D00002269D20013430B6023681B0744D5E369B3
:100D1000002B2ED05C4A536A01210B435362FFF72C
:100D2000B3FC0500584B5B6A9B0735D4FFF7ACFC5E
:100D3000401B0228F6D9032079E153490B68F822B9
:100D400093432269D20013430B60DDE74E4A1368D8
:100D500001218B431360FFF797FC05004A4B1B688A
:100D60009B07D1D5FFF790FC401B0228F6D9032042
:100D70005DE1454A536A01218B435362FFF784FCCE
:100D80000500414B5B6A9B0706D5FFF77DFC401BC6
:100D90000228F6D903204AE123685B0700D47FE0EC
:100DA000394BDB69DB001DD4374AD169802040050F
:100DB0000143D161D36903400193019B0125354B68
:100DC0001B68DB0510D5A368012B21D0002B36D181
:100DD0002D4B1A6A01218A431A621A6A03318A4327
:100DE0001A621AE00025EAE72A4A116880235B00AC
:100DF0000B431360FFF748FC0600264B1B68DB051E
:100E0000E1D4FFF741FC801B6428F6D903200EE1F2
:100E10001D4A136A01210B431362A368002B24D0DF
:100E2000FFF732FC0600184B1B6A9B0736D4FFF70E
:100E30002BFC801B184B9842F5D90320F7E0052BBB
:100E400009D0114B1A6A01218A431A621A6A0331C6
:100E50008A431A62E1E70C4B1A6A04210A431A62B8
:100E60001A6A03390A431A62D7E7FFF70DFC060036
:100E7000054B1B6A9B0711D5FFF706FC801B064B31
:100E80009842F5D90320D2E000100240FFFFFEFF98
:100E9000FFFFFBFF0070004088130000012D33D0DE
:100EA0002368DB0610D56369012B33D0053351D19C
:100EB000644A536B04218B435363536BF4318B436C
:100EC000A169C9000B435363236A002B00D1B2E030
:100ED0005C4A51680C220A40082A00D18AE0022BA1
:100EE0004FD0584A136858490B401360FFF7CCFBAA
:100EF0000400544B1B689B017AD5FFF7C5FB001B10
:100F00000228F6D9032092E04E4AD3694F490B409C
:100F1000D361C5E74B4B5A6B04210A435A635A6BA2
:100F200003390A435A63FFF7AFFB0500454B5B6B80
:100F30009B0706D4FFF7A8FB401B0228F6D9032025
:100F400075E040494B6BF8229343A269D2001343EA
:100F50004B63B9E73B4B5A6B04210A435A635A6B04
:100F600003398A435A63FFF78FFB0500354B5B6BF0
:100F70009B07A9D5FFF788FB401B0228F6D9032061
:100F800055E0304A136830490B401360FFF77CFB93
:100F900005002C4B1B689B0106D5FFF775FB401B1A
:100FA0000228F6D9032042E0264BDA6A0F218A4351
:100FB000E16A0A43DA625A6825490A40A16A606A0E
:100FC00001430A435A601968802252040A431A6096
:100FD000FFF75AFB04001B4B1B689B0106D4FFF76D
:100FE00053FB001B0228F6D9032020E000201EE05E
:100FF00000201CE0012B20D0124B5A68D96A8023B4
:101000005B021340606A834201D001200FE00F238E
:101010000B40E16A8B4201D0012008E0F0239B03E2
:101020001A40A36A9A420AD0012000E0012002B0CF
:1010300070BD0120FBE70020F9E70120F7E7002061
:10104000F5E7C04600100240FFFFFFFEFFFFFFEF85
:10105000FFFFC2FF30B589B004AA174B180032C891
:1010600032C2110002680A606A46103313CB13C201
:101070001B681360114B5A680C231340082B19D1BD
:10108000910C0733194004A8445C0C49C96A0B4011
:101090006946C95CD30308D463011B1B9801C01ABD
:1010A000C0000419200209B030BD0548FFF72CF834
:1010B0006043F8E70248F6E7D0120008001002404B
:1010C00000127A0070B504000D00002800D181E004
:1010D000424B1A68012313408B420BD23F490B68E5
:1010E000012293432B430B600B681A40AA4201D0A4
:1010F000012070E023689A070ED55B0705D5384AB2
:101100005168E023DB000B435360354A5368F021FC
:101110008B43A1680B4353602368DB072DD56368BD
:10112000012B1ED0022B22D02D4A1268920753D5D4
:101130002B494A680320824313434B60FFF7A4FA0C
:101140000600274B5B680C221A4063689B009A429A
:1011500013D0FFF799FA801B224B9842F1D9032054
:1011600039E01F4A12689203E2D4012033E01C4A9E
:1011700012689201DCD401202DE0184B1A6801237B
:101180001340AB420BD915490B68012293432B4303
:101190000B600B681A40AA4201D001201BE02368B3
:1011A0005B0706D50E4A53680F490B40E1680B43B5
:1011B0005360FFF74FFF0A4B5A6812090F23134081
:1011C0000A4AD35CD8400A4B18600020FFF71AFA8D
:1011D000002000E0012070BD0120FCE7002002405B
:1011E0000010024088130000FFF8FFFFB81200084B
:1011F0004C0000200D4885460D480E490E4A00233C
:1012000002E0D458C4500433C4188C42F9D30B4ABA
:101210000B4C002301E013600432A242FBD3FFF722
:10122000F0F900F011F8FFF76BF9FEE7002000205D
:101230000000002058000020F8120008580000208C
:10124000E4000020FEE7000070B500260C4D0D4CB8
:10125000641BA410A64209D1002600F021F80A4D13
:101260000A4C641BA410A64205D170BDB300EB5814
:1012700098470136EEE7B300EB5898470136F2E79E
:10128000F0120008F0120008F0120008F412000832
:1012900003001218934200D1704719700133F9E727
:1012A000F8B5C046F8BC08BC9E467047F8B5C046C5
:0812B000F8BC08BC9E46704723
:1012B80000000000000000000102030406070809FE
:1012C80000000000010203040203040506070809E0
:1012D8000A0B0C0D0E0F1010010203040506070877
:0812E800090A0B0C0D0E0F109A
:0412F000E900000809
:0412F400C10000082D
:1012F80001000200030004000500060007000800C2
:10130800090000007856341202000000122331123E
:101318000400000066778899060000004433221113
:1013280008000000886644220500000048454C4C2F
:101338004F48454C4C4F00007777000000127A0068
:08134800010000000400000098
:04000005080011F5E9
:00000001FF
