:020000040800F2
:1000000000200020050D000881030008830300087C
:1000100000000000000000000000000000000000E0
:100020000000000000000000000000008503000840
:10003000000000000000000087030008890300089A
:10004000550D000800000000550D0008550D000872
:10005000550D000891030008550D0008550D0008C6
:1000600000000000550D0008550D0008550D000852
:10007000550D0008550D0008550D00080000000042
:10008000550D0008550D000800000000550D000832
:10009000550D0008550D0008550D0008550D0008B8
:1000A000550D0008550D0008550D0008550D0008A8
:1000B000550D0008000000000000000000000000D6
:1000C00010B5064C2378002B07D1054B002B02D02E
:1000D000044800E000BF0123237010BD0C00002085
:1000E00000000000B00D0008044B10B5002B03D039
:1000F0000349044800E000BF10BDC04600000000F6
:1001000010000020B00D0008002243088B4274D379
:1001100003098B425FD3030A8B4244D3030B8B4208
:1001200028D3030C8B420DD3FF22090212BA030C11
:100130008B4202D31212090265D0030B8B4219D3F2
:1001400000E0090AC30B8B4201D3CB03C01A524112
:10015000830B8B4201D38B03C01A5241430B8B425A
:1001600001D34B03C01A5241030B8B4201D30B0343
:10017000C01A5241C30A8B4201D3CB02C01A52416A
:10018000830A8B4201D38B02C01A5241430A8B422D
:1001900001D34B02C01A5241030A8B4201D30B0216
:1001A000C01A5241CDD2C3098B4201D3CB01C01A30
:1001B000524183098B4201D38B01C01A524143093A
:1001C0008B4201D34B01C01A524103098B4201D328
:1001D0000B01C01A5241C3088B4201D3CB00C01A95
:1001E000524183088B4201D38B00C01A524143080D
:1001F0008B4201D34B00C01A5241411A00D2014632
:10020000524110467047FFE701B5002000F006F8A4
:1002100002BDC0460029F7D076E770477047C04658
:10022000F0B589B01422002103A800F0B9FD184BE5
:10023000596980208002014359615A690240019244
:10024000019A5A69802109030A435A615B690B408C
:100250000293029BC027BF000E4D002239002800E8
:1002600000F016FA012603960B4B04930024059424
:10027000902003A9C00500F045F903970496059462
:10028000069403A9280000F03DF909B0F0BDC0466E
:1002900000100240000800480000111010B50022B4
:1002A0000021052000F0D4F8052000F003F910BD6E
:1002B00010B580231B051A6882F308881B68043375
:1002C000984710BD10B590B02C22002105A800F071
:1002D00067FD10220021684600F062FD02240494AC
:1002E000012307930F3308930C94A0239B030E93D1
:1002F00004A800F0EBF90723009301940023029374
:1003000003930121684600F065FC10B010BD0000A9
:1003100010B500F069F8FFF7D5FFFFF781FFFFF791
:10032000BDFF08E080214900074800F0B7F9FA2036
:10033000800000F07BF8054B1B78092BF2D9FFF702
:10034000B7FF002010BDC04600080048280000206C
:1003500082B00A4B996901221143996199690A4057
:100360000092009ADA69802149050A43DA61DB6963
:100370000B400193019B02B07047C0460010024041
:100380007047FEE77047704710B500F03DF810BDAC
:1003900010B5012000F08CF910BD704710B50400B5
:1003A0000F4B1978FA208000FFF7AEFE01000D4BCD
:1003B0001868FFF7A9FE00F089F800280DD1032C7A
:1003C00001D901200AE0013000222100404200F062
:1003D0003FF8034B5C60002000E0012010BDC046E8
:1003E000040000200000002010B5064A1368102108
:1003F0000B4313600020FFF7D1FFFFF7A9FF002098
:1004000010BDC04600200240034A1168034B1B7810
:100410005B1813607047C0462C00002004000020C9
:10042000014B18687047C0462C00002070B50400CE
:10043000FFF7F6FF0500631C02D0044B1B78E4189D
:10044000FFF7EEFF401BA042FAD370BD040000206E
:1004500070B5002811DB8308144DC0339B005C5934
:1004600003221040C000FC3216008640B4438901CC
:100470000A40824022435A5170BDC0B20F2303404C
:10048000083B9B0806339B00094A944663445D6819
:1004900003242040C000FF2214008440A5438901AA
:1004A0001140814029435960E6E7C04600E100E081
:1004B00000ED00E0002805DB1F2318401E3B8340B1
:1004C000014A13607047C04600E100E001380A4B62
:1004D00098420FD8094A50600948036A1B021B0A58
:1004E000C02109060B4303620023936007331360A6
:1004F000002070470120FCE7FFFFFF0010E000E054
:1005000000ED00E0F0B5CE46474680B583B000234D
:1005100033E0032600E00026AE4035003D430234C0
:10052000A400554EA551554C2568D4432E002640B5
:100530004F68FF0301D515432E00504D2E606D68A6
:100540002E0026404F68BF0301D515432E004B4DAA
:100550006E60AD682E0026404F68FF0201D515433E
:100560002E00464DAE60ED682C404E68B60201D5B7
:100570002A431400414AD46001330A681400DC4065
:1005800074D001249C402240F6D04D686E1E012E8E
:1005900003D9112D01D0122D12D185685F000326D9
:1005A000BE40B5432E00CD68BD40354385604568EB
:1005B000A5434C682609012434409C402C434460E8
:1005C000C7685E000324B440E443A44627408D6816
:1005D000B5403D43C5604C68022C01D0122C10D1AF
:1005E000DC080834A400A146275807251D40AD00AB
:1005F0000F24AC40A7430C69AC4025003D434C465A
:10060000255005686446254003244F683C40B440AB
:100610002C4304604C68E400AED5194DAE6901244A
:100620002643AE61AD692C400194019C9C08A51C39
:10063000AD00114EAF5903251D40AD000F26AE4051
:10064000B7439026F605B04200D164E70D4EB042A4
:1006500008D00D4EB04207D00C4EB04200D158E742
:10066000052659E7012657E7022655E703B00CBCDB
:1006700090469946F0BDC04600000140000401408C
:10068000001002400004004800080048000C004828
:10069000002A01D1816270478161FCE74269130041
:1006A0000B401B0491431943816170477047000060
:1006B00010B5054B5B69184200D110BD024B586163
:1006C000FFF7F4FFF9E7C0460004014070B582B0BF
:1006D000041E00D132E20368DB0726D5AE4B5A6810
:1006E0000C231340042B18D0AB4B5A680C23134037
:1006F000082B0ED06368012B3CD0002B51D1A64BA8
:100700001A68A6490A401A601A68A5490A401A6080
:1007100036E0A14B5B68DB03ECD59F4B1B689B036A
:1007200003D56368002B00D10BE223689B0773D5C8
:10073000994B5B680C221A425DD0974B5A680C2388
:100740001340082B53D0E368002B00D186E0924A77
:10075000136801210B431360FFF762FE05008E4B07
:100760001B689B0771D4FFF75BFE401B0228F6D97C
:100770000320E4E1884A116880235B020B43136085
:100780006368002B25D0FFF74BFE0500824B1B68EA
:100790009B03CAD4FFF744FE401B6428F6D903200C
:1007A000CDE1052B09D07C4B1A687C490A401A60C0
:1007B0001A687B490A401A60E2E7774B1968802281
:1007C000D2020A431A601968802252020A431A6050
:1007D000D6E7FFF725FE05006F4B1B689B03A4D5EA
:1007E000FFF71EFE401B6428F6D90320A7E16A4BE1
:1007F0005B68DB03A7D4684B1B689B0704D5E368E1
:10080000012B01D001209AE163490B68F822934340
:100810002269D20013430B6023681B0744D5E369A8
:10082000002B2ED05C4A536A01210B435362FFF721
:10083000F7FD0500584B5B6A9B0735D4FFF7F0FDC9
:10084000401B0228F6D9032079E153490B68F822AE
:1008500093432269D20013430B60DDE74E4A1368CD
:1008600001218B431360FFF7DBFD05004A4B1B683A
:100870009B07D1D5FFF7D4FD401B0228F6D90320F2
:100880005DE1454A536A01218B435362FFF7C8FD7E
:100890000500414B5B6A9B0706D5FFF7C1FD401B76
:1008A0000228F6D903204AE123685B0700D47FE0E1
:1008B000394BDB69DB001DD4374AD1698020400504
:1008C0000143D161D36903400193019B0125354B5D
:1008D0001B68DB0510D5A368012B21D0002B36D176
:1008E0002D4B1A6A01218A431A621A6A03318A431C
:1008F0001A621AE00025EAE72A4A116880235B00A1
:100900000B431360FFF78CFD0600264B1B68DB05CD
:10091000E1D4FFF785FD801B6428F6D903200EE1A2
:100920001D4A136A01210B431362A368002B24D0D4
:10093000FFF776FD0600184B1B6A9B0736D4FFF7BE
:100940006FFD801B184B9842F5D90320F7E0052B6B
:1009500009D0114B1A6A01218A431A621A6A0331BB
:100960008A431A62E1E70C4B1A6A04210A431A62AD
:100970001A6A03390A431A62D7E7FFF751FD0600E6
:10098000054B1B6A9B0711D5FFF74AFD801B064BE1
:100990009842F5D90320D2E000100240FFFFFEFF8D
:1009A000FFFFFBFF0070004088130000012D33D0D3
:1009B0002368DB0610D56369012B33D0053351D191
:1009C000644A536B04218B435363536BF4318B4361
:1009D000A169C9000B435363236A002B00D1B2E025
:1009E0005C4A51680C220A40082A00D18AE0022B96
:1009F0004FD0584A136858490B401360FFF710FD59
:100A00000400544B1B689B017AD5FFF709FD001BBE
:100A10000228F6D9032092E04E4AD3694F490B4091
:100A2000D361C5E74B4B5A6B04210A435A635A6B97
:100A300003390A435A63FFF7F3FC0500454B5B6B30
:100A40009B0706D4FFF7ECFC401B0228F6D90320D5
:100A500075E040494B6BF8229343A269D2001343DF
:100A60004B63B9E73B4B5A6B04210A435A635A6BF9
:100A700003398A435A63FFF7D3FC0500354B5B6BA0
:100A80009B07A9D5FFF7CCFC401B0228F6D9032011
:100A900055E0304A136830490B401360FFF7C0FC43
:100AA00005002C4B1B689B0106D5FFF7B9FC401BCA
:100AB0000228F6D9032042E0264BDA6A0F218A4346
:100AC000E16A0A43DA625A6825490A40A16A606A03
:100AD00001430A435A601968802252040A431A608B
:100AE000FFF79EFC04001B4B1B689B0106D4FFF71D
:100AF00097FC001B0228F6D9032020E000201EE00E
:100B000000201CE0012B20D0124B5A68D96A8023A8
:100B10005B021340606A834201D001200FE00F2383
:100B20000B40E16A8B4201D0012008E0F0239B03D7
:100B30001A40A36A9A420AD0012000E0012002B0C4
:100B400070BD0120FBE70020F9E70120F7E7002056
:100B5000F5E7C04600100240FFFFFFFEFFFFFFEF7A
:100B6000FFFFC2FF30B589B004AA174B180032C886
:100B700032C2110002680A606A46103313CB13C2F6
:100B80001B681360114B5A680C231340082B19D1B2
:100B9000910C0733194004A8445C0C49C96A0B4006
:100BA0006946C95CD30308D463011B1B9801C01AB2
:100BB000C0000419200209B030BD0548FFF7A4FAAF
:100BC0006043F8E70248F6E7E00D00080010024035
:100BD00000127A0070B504000D00002800D181E0F9
:100BE000424B1A68012313408B420BD23F490B68DA
:100BF000012293432B430B600B681A40AA4201D099
:100C0000012070E023689A070ED55B0705D5384AA6
:100C10005168E023DB000B435360354A5368F021F1
:100C20008B43A1680B4353602368DB072DD56368B2
:100C3000012B1ED0022B22D02D4A1268920753D5C9
:100C40002B494A680320824313434B60FFF7E8FBBC
:100C50000600274B5B680C221A4063689B009A428F
:100C600013D0FFF7DDFB801B224B9842F1D9032004
:100C700039E01F4A12689203E2D4012033E01C4A93
:100C800012689201DCD401202DE0184B1A68012370
:100C90001340AB420BD915490B68012293432B43F8
:100CA0000B600B681A40AA4201D001201BE02368A8
:100CB0005B0706D50E4A53680F490B40E1680B43AA
:100CC0005360FFF74FFF0A4B5A6812090F23134076
:100CD0000A4AD35CD8400A4B18600020FFF75EFB3D
:100CE000002000E0012070BD0120FCE70020024050
:100CF0000010024088130000FFF8FFFFC80D000835
:100D0000000000200D4885460D480E490E4A00237C
:100D100002E0D458C4500433C4188C42F9D30B4AAF
:100D20000B4C002301E013600432A242FBD3FFF717
:100D300034FB00F011F8FFF7EBFAFEE7002000208B
:100D4000000000200C000020080E00080C0000200D
:100D500030000020FEE7000070B500260C4D0D4C61
:100D6000641BA410A64209D1002600F021F80A4D08
:100D70000A4C641BA410A64205D170BDB300EB5809
:100D800098470136EEE7B300EB5898470136F2E793
:100D9000000E0008000E0008000E0008040E0008F7
:100DA00003001218934200D1704719700133F9E71C
:100DB000F8B5C046F8BC08BC9E467047F8B5C046BA
:080DC000F8BC08BC9E46704718
:100DC80000000000000000000102030406070809F3
:100DD80000000000010203040203040506070809D5
:100DE8000A0B0C0D0E0F101001020304050607086C
:080DF800090A0B0C0D0E0F108F
:040E0000E9000008FD
:040E0400C100000821
:0C0E080000127A0001000000040000004D
:0400000508000D05DD
:00000001FF
